:020000040800F2
:1000000038910020C5010008251200081D120008C3
:1000100021120008C91000084D140008000000005B
:100020000000000000000000000000005312000863
:10003000F9100008000000005112000855120008D5
:10004000DF010008DF010008DF010008DF01000810
:10005000DF010008DF010008DF010008DF01000800
:10006000DF010008DF010008DF010008DF010008F0
:10007000DF010008DF010008DF010008DF010008E0
:10008000DF010008DF010008DF010008DF010008D0
:10009000DF010008DF010008DF010008FD10000893
:1000A000DF010008DF010008DF010008DF010008B0
:1000B000DF010008DF010008DF010008DF010008A0
:1000C000DF010008DF010008DF010008DF01000890
:1000D000DF01000849130008AD130008DF01000824
:1000E000DF010008DF010008DF010008DF01000870
:1000F000DF010008DF010008DF010008DF01000860
:10010000DF010008DF010008DF010008DF0100084F
:10011000DF010008DF01000825130008DF010008E7
:10012000DF010008DF010008DF010008DF0100082F
:10013000DF010008DF010008DF010008DF0100081F
:10014000DF010008DF010008DF010008DF0100080F
:10015000DF010008DF010008DF010008DF010008FF
:10016000DF010008DF010008DF010008DF010008EF
:10017000DF010008DF010008DF01000800000000C7
:10018000DF010008DF010008DF010008DF010008CF
:10019000DF010008DF010008DF01000800000000A7
:1001A000DF010008DF010008DF010008DFF810D0E0
:1001B00000F05AFD00480047712C0008AFF30080A2
:1001C000389100200648804706480047FEE7FEE7D2
:1001D000FEE7FEE7FEE7FEE7FEE7FEE7FEE7FEE7F7
:1001E0005D120008AD01000840EA01039B0703D03F
:1001F00009E008C9121F08C0042AFAD203E011F866
:10020000013B00F8013B521EF9D27047D2B201E027
:1002100000F8012B491EFBD270470022F6E710B50B
:1002200013460A4604461946FFF7F0FF204610BD64
:1002300030B505462A460B4612F8010B13F8014B60
:1002400008B1A042F8D01CB1002802D06D1CF1E723
:10025000284630BD421C10F8011B0029FBD1801A32
:100260007047034611F8012B00F8012B002AF9D141
:10027000184670470FB400B58DB010A909900B90C7
:1002800000914FF0FF300A9000200C900548069036
:10029000054807906A4609A80F9900F0ABFB0DB01E
:1002A0005DF814FB110A00082F0A00082DE9FF4F22
:1002B000087883B09946FF2805D0491C2D2804D022
:1002C0000024002008E000200BE00124F9E700EB07
:1002D000800003EB4000491C0B78FF2BF7D104B1E1
:1002E000404200230293147819461D462D2C01D05C
:1002F0002B2C04D1521C2D2C13D000240294AA467E
:100300001478FF2C0FD00A25A3FB057801FB05818B
:100310004FF0000C03FB0C11521CE3194AEB0101D6
:10032000EEE70124EAE7814453EA010002D019F51F
:10033000C87F06DA03980021C0E9001107B0BDE8C4
:10034000F08F0025AE4E2F46DFF8B882184600F039
:100350004BFCCDE90001B9F1000002DAC9F100045B
:1003600000E004460023A74A1AEB030B42EB045AB1
:1003700012E0E00707D02A4633463846414600F0EF
:10038000ECF9074688462A4633461046194600F0DF
:10039000E4F905460E466410002CEAD1DDE90001BF
:1003A000B9F1000F5A46534606DA00F0AEFB3A4662
:1003B000434600F0AAFB05E000F0CFF93A46434679
:1003C00000F0CBF9029A0AB181F00041039AC2E928
:1003D0000001B3E72DE9FF4F1F468DB0D7E9014675
:1003E0004FF0FF382E2045464FF000090B90B969B9
:1003F0006D1C0E988847396A824688470028F6D1D6
:10040000BAF1FF3F0AD024F4D064002E11DDBAF116
:100410002B0F08D0BAF12D0F0BD102E0404611B0DE
:100420008DE744F48064B9696D1C0E988847824654
:10043000761E6946600501D52D2000E02B208DF841
:10044000000001F1010B0DF1200809E0B9696D1CF4
:100450000E98884782460F9844F40074761E056013
:10046000002E02DDBAF1300FF0D00B998A453ED153
:1004700044F0800406E00F99681CA9F1010944F4D6
:1004800000740860B9696D1C761E0E988847824614
:100490003028F0D02BE00B998A4505D1200603D4F3
:1004A00044F08004761E18E0504601F027F908B3A6
:1004B0000DF11301761E44F400748B4508D2AAF1A5
:1004C00030000BF8010B200607D5A9F1010003E06D
:1004D000200602D409F101008146A00502D50F993A
:1004E000681C0860B9696D1C0E9888478246002E0A
:1004F000D1DC53E0002E51DDBAF1650F02D0BAF124
:10050000450F4BD1A00549D5B9696D1C24F4407441
:10051000761E0E9888478246002E0CDD2B2804D0CC
:10052000BAF12D0F07D144F48074B9696D1C0E988F
:1005300088478246761EE00501D52D2100E02B215B
:1005400008F8011BCDF82C8021E00DF12901761E61
:1005500044F4007488450CD2AAF1300010F0FF007A
:1005600088F8000002D10B99884509D908F10108E3
:1005700006E0E00501D5244801E042F20F70814613
:10058000B9696D1C0E98884782460F980560002E49
:1005900004DD504601F0B2F80028D6D1F9690E9872
:1005A0008847FF208BF8000088F8000000200690A4
:1005B00007904B466A4608A906A8FFF777FEA005F4
:1005C00002D46FF001002AE714F0240F0AD0E007EC
:1005D00014D1DDE906123868031D3B600068C0E9EC
:1005E00000120BE0DDE9060100F022FB0146E00706
:1005F00004D13868021D3A600068016028460EE7A1
:10060000000014400000F03FF1D8FFFF2DE9FE4F3D
:10061000804681EA0300C00F0C46009021F00041A3
:1006200023F00045B8EB0200A94105D2404621461F
:1006300090461C460B46024623F00040104347D02C
:10064000270DC7F30A00C3F30A510290401A019024
:1006500040286BDAC3F3130040F4801B00989246E5
:1006600020B10023D2EB030A63EB0B0B0198594630
:10067000C0F14002504600F086F906460D4650464D
:100680005946019A00F09EF910EB080061410024E0
:1006900087EA115284EAE7731A4340D0009A62B3A2
:1006A000019A012A4FEA075215DC001B61EB020197
:1006B0004FF0004202EA0752CDE90042001C41F52A
:1006C000801132462B4600F0D2F903B0BDE8F08F1E
:1006D00040462146F9E7001B61EB0201001C41F591
:1006E000801300185B412018A2F5001747EB0301A7
:1006F00040EAD570B6196D4111E06D084FEA360633
:1007000045EAC0754FEA0752001B61EB0201001C6D
:1007100041F5801149084FEA300000195141324635
:100720002B4603B0BDE8F04F00F092B900980122CB
:1007300040000023D0EB020263EBE07300982146F7
:100740004FEAE074B8EB000061EB0401E9E783F0E5
:1007500000435BE781F0004158E72DE9FE4F81EA55
:10076000030404F0004421F0004100944FF0000B1A
:1007700023F0004350EA01045ED052EA03045BD048
:10078000C3F30A54C1F30A552C44A4F2F334019480
:10079000A0FB0254C1F3130141F48011C3F313030E
:1007A00043F4801301FB024400FB034E840A970AC2
:1007B00044EA815447EA8357A4FB076802958D0AEF
:1007C00005FB07854FEA932C04FB0C542705029D7B
:1007D0004FEA065847EA1637B5EB08056EEB070CEB
:1007E000870E920E47EA811742EA8312A7FB0201A5
:1007F000B6EB0B0164EB00042B0D43EA0C335E18DF
:1008000044EB1C50DA465146E7FB0201C5F31304E2
:100810004FEA0B3343EA14534FEA0432019C43EA94
:100820000603A4F10C040294009CCDE900B400F08E
:100830001EF903B0BDE8F08F00200146F9E70EB5C0
:1008400040F2334102910021CDE900110A460B46E6
:1008500000F00DF903B000BD70B5C1F30A5201F00C
:1008600000450024C1F3130140F2FF3341F480112D
:100870009A4201DA002070BD40F233439A42A2F25C
:10088000334203DC524200F08DF800E090402C43EC
:10089000F1D0404270BD000030B5041E71F100047B
:1008A00004DB4FF00044404264EB0101141E73F17D
:1008B000000405DB1C464FF00043524263EB040387
:1008C0008B4208BF824230BD30B5041E71F1000476
:1008D00004DB4FF00044404264EB0101141E73F14D
:1008E000000405DB1C464FF00043524263EB040357
:1008F000994208BF904230BD30B50B4601460020FA
:100900002022012409E021FA02F59D4205D303FAD1
:1009100002F5491B04FA02F52844151EA2F1010252
:10092000F1DC30BD2DE9F05F0546002092469B4684
:1009300088460646814640241BE0284641464746F5
:10094000224600F02FF853465A46C01A914110D360
:1009500011461846224600F016F82D1A67EB0108DA
:100960004F4622460120002100F00DF817EB000948
:100970004E41201EA4F10104DFDC484631462A46E0
:100980004346BDE8F09F202A04DB203A00FA02F13A
:10099000002070479140C2F1200320FA03F319436D
:1009A00090407047202A04DB203A21FA02F000210F
:1009B000704721FA02F3D040C2F12002914008436F
:1009C00019467047202A06DBCB17203A41FA02F07D
:1009D00043EAE07306E041FA02F3D040C2F120029C
:1009E000914008431946704702681144137801602A
:1009F00018467047D16004495161044911620021D1
:100A00001161114600F048B9E90900088D0C000891
:100A1000426842B1016811F8013B23B1521EC0E99E
:100A20000012184670470121C160881E7047426855
:100A30005AB1C368016843B983688B4205D0491E27
:100A4000521CC0E90012002070474FF0FF30704781
:100A500010B5141E73F1000408DA401C41F10001C6
:100A600092185B411A4301D120F0010010BD2DE91D
:100A7000F04D92469B4611B1B1FA81F202E0B0FA14
:100A800080F220329046FFF77EFF04460F4640EA90
:100A90000A0041EA0B0153465A46084313D0114657
:100AA00053EA010019D0C8F140025046FFF77AFF1F
:100AB00005460E46504659464246FFF764FF084336
:100AC00005D0012004E020463946BDE8F08D002025
:100AD000054346EAE0762C4337430A986305E40A67
:100AE000A0EB08000022FD0A44EA47540A3002D570
:100AF00000200146E9E7010510196941DDE90845D3
:100B000000196941BDE8F04DA2E72DE9F04D81EAF9
:100B1000030404F0004B21F0004514464FF0000A96
:100B200023F0004150EA050220D054EA01021DD012
:100B3000C5F30A570246C5F31303C1F31300C1F30B
:100B40000A5640F4801543F48013A7EB0608101BE7
:100B5000D64608F2FD3873EB050002D308F1010810
:100B600001E092185B41B8F1000F03DA0020014662
:100B7000BDE8F08D00204FF48011064684460EE05B
:100B8000171B73EB050705D3121B63EB0503064325
:100B90004CEA010C49084FEA300092185B4150EAD8
:100BA0000107EDD152EA030012D082EA040083EA81
:100BB0000501084305D0101BAB4106D201220023DA
:100BC00006E000224FF0004302E06FF001025310F4
:100BD0001AEB06004CEB085110EB0A0041EB0B013D
:100BE000BDE8F04DFFF734BF0EB540F2334202923C
:100BF0000022CDE900221346FFF739FF03B000BD04
:100C0000C1F30A52C1F3130140F2FF3341F48011E2
:100C10009A4202DA00200146704740F233439A427A
:100C2000A2F2334202DC5242FFF7BCBEFFF7ABBE7A
:100C300001F0004330B421F0004150EA010206D037
:100C40000A0DA2F56072C1F31301002A02DC30BC68
:100C500000207047440F44EAC104C100E01830BCD2
:100C600000EBC25000F0B0B9064C074D06E0E0685A
:100C700040F0010394E8070098471034AC42F6D3E3
:100C8000FFF798FA0843000828430008C0B24FF461
:100C9000F05100F0D1B900002DE9F34F8BB04FF0C7
:100CA000000801F10C000C464FF0010B46460DF117
:100CB000080A01906269012101989047051E2DD014
:100CC000252D2CD0216A8847C0B162690121019885
:100CD0009047216A88470028F7D1411E6269019830
:100CE000904700E0761CA1690B988847216A8847E5
:100CF0000028F7D1E1690B988847DBE7A1690B98D9
:100D000088470746A84201D1761CD3E7E1690B98D2
:100D100088477F1C02D1B8F1000F6FD047E1002750
:100D200062693D463946019890472A2804D1626994
:100D30000121019890470125DFF88892626901211D
:100D400001989047A0F130010A290AD24F45E5DC0D
:100D500007EB870100EB4107303FDFD445F010057A
:100D6000ECE7E90601D46FF000476C280AD04C2864
:100D700014D0682815D06A280DD074281CD07A2881
:100D80001AD01DE062690121019890476C2802D0B9
:100D900045F0040514E045F002050DE045F020059E
:100DA0000AE06269012101989047682802D045F065
:100DB000080505E045F40065626901210198904746
:100DC000C4E9015765283DD019DC58287AD00CDCDD
:100DD000452837D004DC252826D0412831D131E000
:100DE00046282FD047282CD12CE05B2877D06128CB
:100DF00028D063287CD0642823D15AE0D1E06F2822
:100E000048D008DC66281DD067281BD0692821D06F
:100E10006E2816D127E0702845D0732868D0752831
:100E200047D078280DD14DE0A1690B988847054639
:100E300025283FF469AFE1690B9888476D1C3FF4A2
:100E40006AAFB4E023466A466FF001000B99FFF7E2
:100E5000C1FA9FE045F040006060A80723464FF0CC
:100E6000000236D43EE0E8077FF447AF2068011D5A
:100E700021600068290501D506701BE7290701D507
:100E8000068017E7A90703D5F117C0E9006111E74C
:100E900006600FE745F040006060A80723464FF06A
:100EA000080216D41EE040F60E0125EA010060603B
:100EB00016E045F040006060A80723464FF00A02A4
:100EC00007D40FE045F040006060A80708D523462E
:100ED00010226FF001000B99AFF300805AE007E099
:100EE000234610226FF001000B99AFF3008051E010
:100EF0004FF000094F464B46632802D05B2807D0CD
:100F000041E02079C00601D40120A06001273AE029
:100F100062690121019890475E2805D14FF00109CF
:100F20006269494601989047216939B900210A460A
:100F3000534643F82120491C0829FADBB0B3216944
:100F400069B9C11700EBD16253110AEB830122F09A
:100F50001F02821A01200B68904003430B606269F4
:100F60000121019890475D28E8D1B9F1000F09D01F
:100F70000020514651F82020D24341F82020401C47
:100F80000828F7DB02AB224600976FF001000B99AF
:100F9000AFF3008000280CDA401C08D1BBF1000F31
:100FA00005D04FF0FF300DB0BDE8F08FFFE74046B1
:100FB000F9E7E90701D108F1010806444FF0000BF9
:100FC00078E60000CCCCCC0C0029A8BF7047401CB0
:100FD000490008BF20F00100704710B4B0FA80FC4F
:100FE00000FA0CF050EA010404BF10BC704749B18C
:100FF000CCF1200421FA04F411FA0CF118BF0121FC
:1010000021430843A3EB0C01CB1D4FEA00614FEADB
:10101000102042BF002010BC704700EBC3501044AA
:101020000029A4BF10BC7047401C490008BF20F035
:10103000010010BC704700007F2801D9002208E0A1
:10104000064A02EB5002C007127800D1120902F0E2
:101050000F0201209040084070470000C84200087D
:1010600010B5002415480078012825D10020134927
:10107000087013480078012806D002280AD00328F7
:101080000ED0042814D10FE001F078FF01200D49A3
:1010900008700DE001F0CAF901200A49087007E064
:1010A00000200849087003E001200649087000BFCD
:1010B00000BF012400F00AF8204610BD1A000020ED
:1010C000190000200400002000BFFEE7C72005E053
:1010D00000230146421ED0B2044A53540028F7D1DF
:1010E0000021034A1170034A117070476C100020F0
:1010F00018000020170000207047000010B5802065
:1011000001F002FB012809D18021054801F0F4FB20
:1011100008B902F0E9FB802001F0F0FA10BD0000F0
:101120000014024010B5044641F2110002F05EFBCB
:101130004FF4406002F05AFB4FF4406002F056FB5F
:1011400004220721254801F0A3FB08220721234898
:1011500001F09EFB042301220221204801F0D4FB70
:101160000823012202211D4801F0CEFB04230222A4
:1011700000211A4801F0EFFB082302220021174842
:1011800001F0E9FB2146164802F0D4FE0021144884
:1011900003F061F80021124803F08EF80021104896
:1011A00003F07AF80E4802F0B1FF08210C4803F072
:1011B0007BF804210A4803F056F840F2053108484C
:1011C00003F020F84FF44171054803F01BF80222A8
:1011D0001146262001F066FE10BD0000000002400E
:1011E0000044004010B504462146054802F01BFFAC
:1011F00000BF0721024802F08EFF0028F9D010BD81
:101200000044004070B504460D4604E02078FFF726
:10121000E9FF6D1E641C002DF8D170BD00BFFEE714
:1012200000BFFEE77047000010B5002807DA0A0784
:10123000140E054A00F00F031B1FD45403E00A07E5
:10124000130E024A135410BD18ED00E000E400E054
:101250007047704710B501F083F910BD08B52D48EF
:10126000006840F470002B4908602B48006840F08B
:1012700001002949086028480830006840F08000D3
:101280002549083108600020009002E00098401CC9
:1012900000904CF2503100988842F7D31E48083035
:1012A000006840F090001C49083108600020009060
:1012B00002E00098401C00904CF2503100988842A7
:1012C000F7D315480830006820F0030012490831B0
:1012D000086011480068114908400F490860084635
:1012E000006820F48020086000200B490831086065
:1012F00000BF09480830006800200028F9D10848DC
:101300000549091D0860002003490C31086002F0FE
:10131000A9FC08BD88ED00E000380240FFFFF6FEA2
:101320001030002410B50121064802F0E4FD012828
:1013300007D10121034802F0DBFD01F023FD01F09C
:10134000CDFC10BD0010004010B51249124802F04B
:1013500066FF01280BD1104802F060FEC1B20F48B1
:1013600002880088401C0D4B18800D4881540D499F
:10137000094802F054FF01280AD1074802F04EFE46
:1013800000200749054A1288885401200649087040
:1013900010BD0000050305000010014014000020EE
:1013A0006C000020040304001600002010B51F4943
:1013B0001F4802F034FF30B31D4802F02FFE1D49D4
:1013C0001D4A1278885408461B490978405C552804
:1013D0000FD119480078801E1649085CAA2808D148
:1013E00015480078401E085C144908700120144913
:1013F000087011480078401CC82190FBF1F201FBF5
:1014000012000D4908700F49094802F008FF012831
:101410000AD1074802F002FE00200649064A127867
:10142000885401200849087010BD0000050305001C
:10143000004400406C10002018000020190000201B
:101440001A000020040304001700002000BFFEE77C
:101450000FB4054B10B503A9044A029800F056F9E1
:1014600010BC5DF814FB00002D2700086000002070
:101470000FB4084B10B504A902AA039800F046F96E
:10148000044602A9002000F0C4FC204610BC5DF810
:1014900014FB0000131E000830B528B1144C031FC4
:1014A000002021680A4605E0084630BD9A4203D86C
:1014B00010465268002AF9D1002800D041680BD0AC
:1014C0000468A3EB0005A54204D11B681C44034635
:1014D000046002E0436000E023603AB11C68D51A62
:1014E000A54203D115682C441C6052685A6030BD77
:1014F000640000202DED020B019820F000400190C7
:101500009DED000B02B070472DE9F04782460F4C6D
:1015100010480D4E0E4F001B4FF0000820F007053D
:101520004FF0010900221146504601F0EFFA002861
:1015300002D1306810B10020BDE8F0873C60C4E9FA
:101540000058C6F80090EDE7680000203C1100202C
:10155000640000203851002002E008C8121F08C1B2
:10156000002AFAD170477047002001E001C1121F24
:10157000002AFBD1704700002DE9FF5F82B00021F7
:10158000DDE90430020DDDF840B0034318D044F625
:101590001050A2F2FF3242431514119801281FD0B7
:1015A000A5EB0B00401C5FEA000A4FF000064E4F0F
:1015B000DFF83891B046504615D5CAF1000413E063
:1015C000119801244AA3012801D16FEA0B01029866
:1015D000119AC0E90031C0E9024206B0BDE8F09FAF
:1015E000CBF10000DFE704460021404A491842EBF6
:1015F0000450CDE9001012E0E00707D032463B4628
:1016000040464946FFF7A9F88046894632463B46A0
:1016100010461946FFF7A1F806460F466410002C45
:10162000EAD1DDE90401DDE90023BAF1000F06DAB1
:10163000FFF793F842464B46FFF78FF805E0FFF7B8
:1016400064FA42464B46FFF760FA04460E46002213
:10165000284BFFF739F903D84FF0FF30014607E078
:101660000022254B20463146FEF7D0FFFFF7C8FA8F
:10167000102409E0002C0ADB0A220023FFF752F9AC
:10168000039B30321A55641E50EA0102F2D1641CE9
:10169000039AC4F111031444119A012A03D00122C0
:1016A00008430DD10AE0084304D000204FF0110B8D
:1016B000119072E7A3EB0B056D1E0DE05B4504DD99
:1016C0004FF0000205F1010504E003DA4FF00002DB
:1016D000A5F10105002AECD002981199C0E9023168
:1016E000C0E9004579E70000000014400000F03F29
:1016F000300000000000F0430000E03F30380A28CE
:1017000001D2012070470020704700002DE9FF4FF3
:1017100095B09A46884606460025EEE1252877D101
:1017200000242746F94A0121039400E0044316F8F7
:10173000013F203B01FA03F01042F7D130782A280C
:1017400011D06FF02F033078A0F13002092A16D89B
:10175000039A44F0020402EB820203EB42021044BB
:10176000761C0390EFE758F8042B0392002A03DA63
:10177000504244F40054039044F00204761C307844
:101780002E2816D116F8010F44F004042A280DD093
:101790006FF02F023078A0F13003092B09D807EB46
:1017A000870302EB4303C718761CF3E758F8047B62
:1017B000761C30786C280FD006DC4C2817D06828AF
:1017C0000DD06A2814D104E0742810D07A280FD1E3
:1017D0000DE044F400140AE044F4801401E044F401
:1017E00040147278824202D104F58014761C761C73
:1017F000307866280BD013DC582877D009DC002815
:1018000075D04528F6D04628F4D047281AD193E160
:1018100018E0632835D0642879D0652812D18BE18F
:10182000702873D008DC6728F1D069286FD06E2843
:101830000DD06F2806D1ACE073282CD0752874D059
:10184000782853D05246179990476D1C54E1C4F341
:101850000250022809D003280DD0D8F8001004281F
:101860000DD00D6008F1040846E1D8F80010EA1721
:10187000C1E90052F6E7D8F800100D80F2E70D70CC
:10188000F0E718F8041B8DF8001000208DF8010017
:10189000EB46012003E058F804BB4FF0FF3061072E
:1018A0004FF0000102D40DE009F101018946B9426F
:1018B0000FDA8145F8DB1BF809100029F4D108E0A4
:1018C00009F1010189468142FADB1BF80910002960
:1018D000F6D103985346A0EB090721463846179ADC
:1018E00000F080FA284400EB090507E044E008E135
:1018F0000DE01BF8010B524617999047B9F1010909
:10190000F7D2534621463846179AF2E039E00A21C9
:10191000C4F302524FF0000B0091022A06D058F88F
:10192000040BC117032A09D00AE023E008F10700DD
:1019300020F00702F2E80201904605E000B2C1176C
:10194000042A01D140B2C117002906DA0A46002153
:10195000404261EB02012D2202E0220504D52B2238
:101960008DF80420012203E0E20701D02022F7E7EE
:10197000914657E00A2100E010214FF0000B009142
:101980000BE010214FF0000B44F0040408270091F5
:1019900003E008204FF0000B0090C4F30252022A2B
:1019A00005D058F8040B0021032A08D008E008F1FC
:1019B000070020F00702F2E80201904603E080B23F
:1019C000042A00D1C0B24FF0000922072AD532788C
:1019D000702A07D0DDF800C08CF0100C5CEA0B0C0C
:1019E00005D00EE040228DF80420012208E050EAE4
:1019F000010306D030238DF804308DF80520022233
:101A00009146009B83F0080353EA0B030AD150EA86
:101A1000010201D1620705D530228DF804204FF074
:101A200001097F1E3278582A04D039A20C920CAAE0
:101A300002920BE03BA2F9E75B46009AFEF772FFC9
:101A40000C9B9B5C029A521E0292137050EA010298
:101A5000F2D1029804A9081A00F1200B600702D500
:101A600024F4803400E001275F4502DDA7EB0B0082
:101A700000E0002000EB0B01009003984944401A5D
:101A80000390E00306D453462146179A039800F0CA
:101A9000A9F90544002706E001A85246C05D179940
:101AA00090476D1C7F1C4F45F6DBE0030CD5534679
:101AB0002146179A039800F095F9054404E0302078
:101AC0005246179990476D1C0099481E00900029B6
:101AD000F5DC08E00298029952460078491C029110
:101AE000179990476D1CBBF10001ABF1010BF1DCC4
:101AF0005BE100F065F90544761C307800287FF43E
:101B00000DAE19B02846BDE8F08F0000092801008D
:101B10003031323334353637383961626364656663
:101B20000000000030313233343536373839414225
:101B30004344454600000000600700D4062708F132
:101B4000070020F00700F0E80223804603F0004C75
:101B50005FEA0C0001D097A009E0200501D596A00E
:101B600005E0E00701D095A001E0AFF24C00139032
:101B7000307823F0004365280CD006DC452809D0D6
:101B800046281DD047287FD13BE0662818D067281B
:101B90007AD136E00021112F01DB112000E0781C02
:101BA000CDE9000104A90CA8FFF7E6FCDDE90D0171
:101BB0000C9A4FF0000B07F10109109200914EE0D2
:101BC0004FF000400097CDE9011004A90CA8FFF7E1
:101BD000D3FCDDE90D020C9B0F994FF0000B9146F1
:101BE0001093009211B9791C00EB0109B7EB0900C1
:101BF00003D4C0F1FF3B07F10109A9EB07000190F5
:101C000042E0012F00DA01270021112F01DD112010
:101C100000E03846CDE9000104A90CA8FFF7ACFCB0
:101C2000DDE90D010C9A00914FF0000BB9461092BE
:101C300021070FD4009A4A4503DA914601E0A9F141
:101C40000109B9F1010F05DD109AA9F10101515CFB
:101C50003029F4D0B84202DA10F1040F03DA01217E
:101C6000CDE9011010E0002803DC8344A9EB00015A
:101C700002E0411C494500DD8946A0EB0B00401CF9
:101C800001904FF000400290200705D4019848458C
:101C900002DB4FF0FF30019000208DF84B000298DE
:101CA0000DF14B07B0F1004F25D002200C902B20F6
:101CB0000D90029800280CDA404202902D200D90E1
:101CC00007E00A210298FEF717FE3031029007F86C
:101CD000011D0C99481E0C900029F2DC0298002886
:101CE000EFD1791E0D980870307800F0200040F098
:101CF000450007F8020D11A8C01BC01D02901398E3
:101D0000007800B1012000EB0901019801EBE071BE
:101D1000029801440398401A401E0390E00306D441
:101D200053462146179A039800F05CF8054413982F
:101D3000007818B15246179990476D1CE00323D5DF
:101D400053462146179A039800F04CF805441BE0CF
:101D5000BBF1000F07DB0098584504DD1098179978
:101D600010F80B0001E01799302052469047019877
:101D70000BF1010B401E05F10105019004D12E204D
:101D80005246179990476D1CB9F10001A9F101095C
:101D9000DEDC05E017F8010B5246179990476D1CE1
:101DA0000299481E02900029F4DC53462146179AF6
:101DB00003989EE62D0000002B000000200000008C
:101DC0002DE9F041044600251E461746880404D438
:101DD00005E039462020B0476D1C641EF9D5284621
:101DE000BDE8F0812DE9F041044600251E469046ED
:101DF000C80301D5302700E02027880404D505E07A
:101E000041463846B0476D1C641EF9D52846BDE8EA
:101E1000F0810A68531C0B6010707047816841F0B4
:101E20000801816000BF816801F008010029FAD132
:101E3000816841F00401816000BF816801F0040104
:101E40000029FAD1704730B5012902D0022920D1EA
:101E50000FE06AB1102A0BD8C36A23F47003C3627F
:101E6000C36A541E4FF4700505EA04542343C36249
:101E700010E06AB1042A0BD8836B23F44013836308
:101E8000836B541E4FF4401505EA045423438363C7
:101E900000E000BF00BF30BD0649096821F4E02121
:101EA000054AC2F804131146D1F804130143C2F8DD
:101EB00004137047042301400020014021B18268CF
:101EC00042F40062826003E0826822F40062826071
:101ED0007047816801F0010119B9816841F0010181
:101EE00081607047012902D0022912D108E083687D
:101EF00023F040538360836843EA0273836009E000
:101F0000836823F440138360836843EA0253836049
:101F100000E000BF00BF70470246002013680B407E
:101F200003B101207047F0B51D4606290CDA436B5A
:101F300001EB81071F26BE40B34301EB810602FA85
:101F400006F63343436322E00C290EDA036B8E1F3F
:101F500006EB86071F26BE40B3438E1F06EB8606A0
:101F600002FA06F63343036311E010290FDAC36A5D
:101F7000A1F10C0606EB86071F26BE40B343A1F174
:101F80000C0606EB860602FA06F63343C3620A2AFB
:101F90000CDA046902EB42070726BE40B44302EBA9
:101FA000420605FA06F63443046111E0122A0FDCFA
:101FB000C468A2F10A0606EB46070726BE40B443F2
:101FC000A2F10A0606EB460605FA06F63443C4609B
:101FD000F0BD0146C86C80B27047426822F0407282
:101FE000426042680A4342607047012902D00229D8
:101FF0000AD104E0826842F08042826005E0826893
:1020000042F48002826000E000BF00BF7047AAB1C6
:1020100001F480731BB1436843F48073436001F49F
:1020200080631BB1436843F48063436001F00203A3
:10203000CBB1836843F00203836014E001F4807342
:102040001BB1436823F48073436001F480631BB1C8
:10205000436823F48063436001F002031BB183688B
:1020600023F00203836070470649096821F01F01CD
:10207000054AC2F804131146D1F804130143C2F80B
:1020800004137047042301400020014070B5054649
:102090000C46002614B10DB1A54201D1002070BD3F
:1020A000AE6826B9AC6064600020206007E070680C
:1020B00028B12146706801F0FDFCA8684460012049
:1020C000EDE72DE9F04705460E4614461F46DDF8BC
:1020D00020904FF00008C2461DB116B10CB1A542C8
:1020E00002D10020BDE8F087B9F1000F07D03046DB
:1020F00000F09AF98046E06840F4007A0CE0394636
:10210000304600F075F98046B8F1000F01D100208B
:10211000E8E7E06820F4007AA08900F4007020B9B4
:10212000206A10B1206A79688847C4F82080C4F812
:102130000CA021462846FFF7A9FFD3E770B52DED87
:10214000028B0025002400F075FB85B200F04AFBED
:1021500084B200F0FDF8294908602846FEF76FFBBD
:1021600041EC180BB0EE480AF0EE680A24A12348AF
:10217000006800F089F82046FEF761FB41EC180B7F
:10218000B0EE480AF0EE680A20A11C48006800F092
:102190007BF81A48006800F021F91F4908600846DA
:1021A00001681EA0FFF754F91448006800F0DCF83D
:1021B000322D07DB1AA0FFF74BF900F0DFFEBDEC74
:1021C000028B70BD3C2C04DB1DA0FFF741F900F031
:1021D000D5FE0A2C04DC21A0FFF73AF900F026F91D
:1021E0003C2C04DC0A2C02DB23A0FFF731F90A485F
:1021F0000068FFF751F900BFE1E700000800002088
:102200007261696E5F76616C756500006C69676804
:10221000745F76616C7565000C00002025730A0000
:1022200020BCECB2E2B5BDB4F3C1BFD3EAB5CEA3D6
:10223000ACB4F2BFAAB4B0C1B1200D0A20000000B6
:10224000BCECB2E2B5BDB9E2D5D5CCABC7BFA3AC4F
:10225000B4F2BFAAB4B0C1B10D0A2000BCECB2E226
:10226000B5BDB9E2D5D5CCABC8F5A3ACB9D8B1D51D
:10227000B4B0C1B10D0A2000CEACB3D6B5B1C7B071
:10228000D7B4CCAC0D0A200070B52DED028B82B016
:1022900004460D46B0EE408AF0EE608AB0EE480A81
:1022A000F0EE680A00F016F806460020084B3246A9
:1022B000294600902046FFF704FF20B1304602B0C7
:1022C000BDEC028B70BD304600F04EF80020F6E702
:1022D0005400002010B52DED028BB0EE408AF0EED8
:1022E000608A164800F06CF8044614B30820E060D9
:1022F00084ED068B9FED120B53EC102B51EC180B59
:10230000FEF7E2FA03D86FF00040606111E09FED44
:102310000E0B53EC102B51EC180BFEF7BDFA03D843
:102320004FF00040606104E051EC180BFEF794FAA6
:1023300060612046BDEC028B10BD000054000020FF
:102340000000C0FFFFFFDF41000000000000E0C10F
:1023500010B5044800F034F804460CB14020E060A9
:10236000204610BD5400002070B50446002522E030
:102370002568A08900F4807020B9A06810B1A06819
:10238000FFF7F2FFA08900F4807028B9206918B126
:102390000A4A206951688847A08900F4007028B96A
:1023A000206A18B1054A206A516888470348416885
:1023B000204688472C46002CDAD170BD54000020FE
:1023C00070B5044628202168884705461DB128219C
:1023D0002846FDF722FF284670BD000010B50446D0
:1023E000024A0121204600F0DFFD10BD540000200C
:1023F0002DE9F04104460D460026002714B90020BF
:10240000BDE8F0812046FDF725FF461C30462968CF
:10241000884707460FB90020F2E732462146384682
:10242000FDF7E2FE3846EBE77047000000B500F02C
:1024300029FAB0F5167F06DA012006490870002057
:102440000549087004E0002002490870024908703C
:1024500000BD00004400002045000020002001498C
:10246000887070472F00002010B52DED0C8BB0EE5A
:10247000409AF0EE609AB0EE418AF0EE618AB0EEDA
:10248000480AF0EE680AFFF735F8B0EE40BAF0EE11
:1024900060BAB0EE490AF0EE690AFFF72BF8B0EE29
:1024A00040CAF0EE60CA53EC1B2B51EC1C0BFEF73C
:1024B0000BFA06D2B0EE490AF0EE690AFFF71AF8F5
:1024C00005E0B0EE480AF0EE680AFFF713F8B0EE48
:1024D00040AAF0EE60AA9FED140B53EC102B51ECC8
:1024E0001A0BFEF73AF941EC1B0B53EC182B51EC8D
:1024F000190BFEF72CF941EC1D0BB0EE4D0AF0EE76
:102500006D0AFEF7F7FFB0EE40CAF0EE60CA53EC7A
:102510001B2B51EC1C0BFEF7BFF903D80120BDECBF
:102520000C8B10BD0020FAE7000000000000B03C5A
:102530000549086000BF044909684FF47A725143A5
:102540000029F8D17047000000000020034908600E
:1025500000BF024909680029FBD170470000002034
:102560000448006820B103480068401E0149086023
:1025700070470000000000202DE9F04104460D46A0
:10258000002600270CB1206810B90020BDE8F081BA
:10259000606828B1D4E90110884201D30020F5E732
:1025A000B5F1004F01D30020F0E7A068401C0544BE
:1025B0006068A84203D3A16820680844E6E7206960
:1025C00008B10020E2E7B5F1804F07D3B5F1004F25
:1025D00002D26FF0004702E00020D7E76F00206AC8
:1025E00060B13946226A206890470646DEB9E16943
:1025F00020688847002060602060C7E73846A169EE
:102600008847064636B9E16920688847002060603F
:102610002060BBE7A068421C30462168FDF7E4FD5E
:10262000E1692068884767602660A0683044ADE7AC
:1026300010B52D4B1B6883432B4C2360231D1B6857
:102640008343241D2360231D1B688343241D2360B3
:10265000231D1B688343241D236011B101290ED162
:1026600005E0214B1B6803431F4C236008E01E4B11
:102670001B1D1B6803431C4C241D236000E000BF8E
:1026800000BF32B1012A11D0022A1CD0032A27D15F
:1026900027E0154B08331B680343134C08342360B1
:1026A000231D1B688343241D23601BE00E4B08334E
:1026B0001B6883430C4C08342360231D1B680343B1
:1026C000241D23600EE0084B08331B680343064CAF
:1026D00008342360231D1B680343241D236001E08D
:1026E00000BF00BF00BF10BD003C014002490968A7
:1026F0000143014A11607047003C014001490860F4
:1027000070470000143C014001460748006800EA99
:10271000010205481438006800EA010312B10BB148
:10272000012070470020FCE7143C014070B50446CE
:102730000D46E0B201F0A0FD204670BD70B5044624
:1027400000250123224600210948FFF7ECFB012167
:102750000748FFF74AFC00BF02210548FFF7DCFBF2
:102760000028F9D00248FFF734FC0546284670BD22
:10277000002201402E2070470148807870470000F9
:102780002F00002070B50546002407E0FA2C01D385
:102790002C6070BD1420FFF7D9FE641C8021044812
:1027A00000F0AAF80128F1D02C6000BFF1E700008A
:1027B0000014024070B50546002408E0B4F5FA7F25
:1027C00001D32C6070BD1420FFF7C0FE641C802173
:1027D000034800F091F80028F0D02C6000BFF1E72A
:1027E0000014024010B52DED028B40F6FF7008EE8C
:1027F000100A002008EE900A00240420FFF79EFF34
:1028000008EE900AB8EEE80AB8EEC81AC0EE010A5F
:10281000B7EE000A30EE600ADFED050A20EE200A6E
:10282000BDEEC00A10EE104A2046BDEC028B10BD72
:102830000000C84210B52DED028B40F6FF7008EE87
:10284000100A002008EE900A00240620FFF776FF09
:1028500008EE900AB8EEE80AB8EEC81AC0EE010A0F
:10286000B7EE000A30EE600ADFED050A20EE200A1E
:10287000BDEEC00A10EE104A2046BDEC028B10BD22
:102880000000C84201480088704700004600002050
:10289000F0B503461C6A5D6A00200DE00126864003
:1028A00016403EB187000F26BE40B443860001FAB1
:1028B00006F63443461CB0B20828EFD3082011E0D6
:1028C0000126864016405EB1A0F10806B7000F262B
:1028D000BE40B543A0F10806B60001FA06F635433E
:1028E000461CB0B21028EBD31C625D62F0BD0AB189
:1028F000816100E08162704702461069084008B1BA
:10290000012070470020FCE7F0B504460D4616464E
:102910002168E268002019E0012787401F409FB12D
:102920004FEA400C032707FA0CF7B943470005FAB2
:1029300007F739434FEA400C032707FA0CF7BA436D
:10294000470006FA07F73A43471CB8B21028E3D30A
:102950002160E260F0BDF0B50C461546012C03D1B4
:1029600046681E43466002E046689E4346608268B1
:1029700000210DE001268E401E403EB14F0003268F
:10298000BE40B2434E0005FA06F632434E1CB1B2C9
:102990001029EFD38260F0BD08B500200090684692
:1029A000FFF708FF0098B0F5FA7F03D80098B0F55C
:1029B000C87F01D2012008BD6846FFF7E3FE0098FA
:1029C000FA2802D80098642801D20120F3E7009881
:1029D000642804D90098962801D20220EBE7002051
:1029E000E9E7000010B5FFF7C7FE98B3FFF7C4FE94
:1029F00068281AD090280DD0B0281FD0E02826D102
:102A000000F0BCFA01201449087005211348FEF7B4
:102A1000F9FB1CE0FFF70AFD01200F4908700521B2
:102A20000E48401DFEF7EEFB11E000200A49087039
:102A300005210A480A38FEF7E5FB08E001200649AF
:102A4000087005210548401FFEF7DCFB00BF00BFF2
:102A5000FFF704FD10BD0000040000202500002049
:102A600038B5044620786178C943C9B2884201D09C
:102A7000002038BDA078E178C943C9B2884201D0AE
:102A80000120F6E7E0780090A3786278217807A02B
:102A9000FEF7DEFC20780949087060784870A0785D
:102AA0008870E078C8700220E3E7000025782025D0
:102AB000782025782025780D0A0000002F000020BE
:102AC00010B540F6054000F091FE41F20E1000F006
:102AD0008DFE8023012200210B48FFF715FF022203
:102AE0001146172000F0DEF90721052000F0E6FF6F
:102AF000012200218020FFF79BFD8020FFF7F6FDDB
:102B00008020FFF7FBFD10BD001402402DE9F041CD
:102B10000B3020F00706104D19E02068B04215D3A5
:102B2000B0420AD9871B201DD4F80480FDF75CFB56
:102B3000A019C0E90078286004E060682860201DC2
:102B4000FDF752FB201D2660BDE8F081251D2C6895
:102B5000002CE2D10020F7E76400002010B52948DE
:102B6000007800284DD000202649087026A127486B
:102B7000FDF75EFB58B101202549087000F0FEF911
:102B800024A0FEF765FC05212548FEF73BFB25A1A7
:102B90001E48FDF74DFB60B101201D490870FFF78D
:102BA00045FC05211E48401DFEF72CFB1EA0FEF72C
:102BB0004FFC20A11548FDF73BFB50B10020144904
:102BC00008701EA0FEF744FC052115480A38FEF7E0
:102BD00019FB1FA10D48FDF72BFB50B101200C493B
:102BE00008701DA0FEF734FC05210D48401FFEF7BC
:102BF00009FB1E4801880548FDF70FFB00201B4913
:102C0000088010BD160000204F6E00006C000020F0
:102C100004000020B4B0C1B1D2D1BFAAC6F40A00EA
:102C2000250000204F666600B4B0C1B1D2D1B9D83A
:102C3000B1D50A004175746F00000000B4B0C1B195
:102C4000B5F7D5FBCEAAD7D4B6AFC4A3CABD0A0088
:102C50004D616E75616C0000B4B0C1B1B5F7D5FBC4
:102C6000CEAACAD6B6AFC4A3CABD0A0014000020BB
:102C70004FF4A06000F078F900F0F8FF4FF4165020
:102C800001F058FA12A0FEF7E3FB4FF41650FEF7DE
:102C900049FAFEF7E5F900F0D3FC00F077FE00F00A
:102CA000D9FE00F0BDF8FFF70BFF0FE00A480078EF
:102CB00008B9FFF743FAFEF7D3F9FFF793FE00F0E8
:102CC000D3F8FFF74BFFC820FFF732FCEEE7000018
:102CD00073746172740D0A000400002010B523485B
:102CE0000078012841D1224822490978405CC0F38C
:102CF000C0024FF480512048FFF7F9FD1C481D49E0
:102D00000978405CC0F380024FF400711B48FFF764
:102D1000EEFD174817490978405CC0F340024FF4B4
:102D200080611548FFF7E3FD114812490978405CBE
:102D300000F0010240211148FFF7D9FD0D49097843
:102D4000481CC11700EB5171C910A0EBC101094A21
:102D500011700B480088012802DC01200849088016
:102D600007480088401E0649088010BD4500002025
:102D70003C000020490000200018024000040240EE
:102D80004600002010B52048007801283AD11F489D
:102D90001F490978405CC0F3C0024FF480511D48C0
:102DA000FFF7A5FD19481A490978405CC0F3800275
:102DB0004FF400711848FFF79AFD14481449097838
:102DC000405CC0F340024FF480611248FFF78FFD72
:102DD0000E480F490978405C00F0010240210E487E
:102DE000FFF785FD0A490978481CC11700EB5171AE
:102DF000C910A0EBC101064A117008480088401CA8
:102E00000649088010BD0000440000203400002066
:102E10004800002000180240000402404600002044
:102E200010B502E0012009490870FFF72BFDB0F54D
:102E3000167FF7DB002005490870FFF723FD0446E5
:102E4000214603A0FEF704FB10BD00004400002053
:102E5000206765745F737465705F636F756E74204F
:102E60003D2025640D0A000000B50C4800780128BB
:102E700007D1FFF707FDB0F5167F02DD00200749F7
:102E8000087007480078012806D1FFF7FBFC0028EE
:102E900002DC00200249087000BD00004400002050
:102EA000450000202DE9F04103460D46164600245A
:102EB0000027A0462A48006800F4E060B0F5E06F03
:102EC00003D100BF4FF0040830E02548006800F44B
:102ED000E060B0F5C06F03D101274FF0030825E093
:102EE0001F48006800F4E060B0F5A06F02D102272F
:102EF000B8461BE01A48006800F4E060B0F5806F47
:102F000003D103274FF0010810E01548006800F4D2
:102F1000E060B0F5407F03D104274FF0000805E0E2
:102F20004FF4A06000F020F80227B846C7F1040073
:102F300005FA00F4C8F104010F20C84030400443F2
:102F400024010848C45403F01F010120884059118E
:102F5000890001F1E021C1F80001BDE8F081000025
:102F60000CED00E000E400E002490143024A116078
:102F7000704700000000FA050CED00E000B5FFF717
:102F800081FC002806DD0120054908700020054964
:102F9000087004E00020024908700249087000BD72
:102FA0004500002044000020F0B589B007460E46D9
:102FB0001446002524216846FDF72FF94FF4807050
:102FC0002168884700904FF480700190059694E83E
:102FD000070006AB07C3009800B933E069463846DE
:102FE00000F0ACFA00B92DE0684600F090FFA06850
:102FF00050B1029B591C0098A2689047054605B93C
:1030000020E0002000901AE0029A501C21688847B6
:10301000054605B916E0DDE90130401C834201D2C6
:10302000019801E00298401C024628460099FDF7ED
:10303000DBF80020029968540098616888472846A8
:1030400009B0F0BD009810B100986168884715B1CB
:103050002846616888470020F2E72DE9F0410746DD
:103060000C460025A846BE6814B90020BDE8F081D2
:1030700001212046FFF780FA05460DB90020F5E74B
:103080005B202870A068401CA060E068401CE060E5
:1030900028E02146304600F051FA08B90020E5E763
:1030A000204600F034FF3068D8B1606908B10220D2
:1030B00000E00120804608F101012046FFF75CFA9C
:1030C00005460DB90020D1E72C2005F8010B6069F9
:1030D00010B1202005F8010B00202870A0684044A2
:1030E000A0603668002ED4D102212046FFF744FAB2
:1030F00005460DB90020B9E75D2005F8010B002059
:103100002870E068401EE0600120AFE72DE9F04341
:103110002DED028B8BB080460D46002798ED060BF7
:10312000B0EE408AF0EE608A002600241C2104A83C
:10313000FDF773F8FFF71EFB81469FED380B8DED11
:10314000020B2DB900200BB0BDEC028BBDE8F08363
:103150008DED008BDDE900210AB1012200E00022A3
:1031600041EA020020F000412E4A511AC90F61B90C
:103170008DED008B51000198B1EB400F03D1009809
:1031800008B9012000E0002028B127A104A8FEF71B
:103190006FF906461DE053EC182B25A104A8FEF795
:1031A00067F9064602AA24A104A8FDF763F80128DE
:1031B00008D1B0EE481AF0EE681A9DED020BFFF749
:1031C00053F930B953EC182B1CA104A8FEF750F9A1
:1031D0000646002E01DB192E01DD0020B3E7711C2D
:1031E0002846FFF7C9F907460FB90020ABE70024CE
:1031F0000BE004A8005D484502D12E20385503E0BD
:1032000004A8005D385500BF641CB442F1D300200F
:103210003855A8683044A860012094E700000000F9
:10322000000000000000F07F6E756C6C0000000074
:1032300025312E3135670000256C670025312E3190
:10324000376700002DE9F04781460C46002500262F
:10325000D9F8087014B90020BDE8F087606908B19A
:10326000022000E001200646711C2046FFF784F989
:1032700005460DB90020EFE77B2005F8010BE0685B
:10328000401CE060606910B10A2005F8010BA068DD
:103290003044A06069E06069B8B12046E168FFF79A
:1032A0006BF905460DB90020D6E74FF0000804E0A1
:1032B000092005F8010B08F10108E0684045F7D83E
:1032C000D4E902010844A06000BF2146386A00F03A
:1032D0007BF808B90020BFE7204600F018FE6069BF
:1032E00008B1022000E00120064631462046FFF7E3
:1032F00043F905460DB90020AEE73A2005F8010B69
:10330000606910B1092005F8010BA0683044A06085
:103310002146384600F012F908B900209CE7204603
:1033200000F0F5FD606908B1012000E00020396877
:1033300009B1012100E000214618711C2046FFF769
:103340001BF905460DB9002086E7386810B12C201E
:1033500005F8010B606910B10A2005F8010B002087
:103360002870A0683044A0603F68002F93D1606946
:1033700010B1E068401C00E0022001462046FFF743
:10338000FBF805460DB9002066E7606950B10020E2
:1033900003E0092105F8011B401CE168491E814238
:1033A000F7D800BF7D2005F8010B00202870E068E9
:1033B000401EE06001204FE770B504460D462946E7
:1033C000206900F001F870BD2DE9F04707468A46F4
:1033D000002400260025A046A146BAF1000F02D124
:1033E0000020BDE8F0876FB903215046FFF7C4F80D
:1033F00006460EB90020F4E74DA13046FCF731FF38
:103400000120EEE73C4622E020780C2811D006DCB3
:1034100008280DD009280FD00A2810D10AE00D285D
:1034200009D0222802D05C2809D100E000BF00BFEB
:1034300000BF00BF00BF00BF09F1010905E020780F
:10344000202801DA09F1050900BF00BF641C2078BB
:103450000028D9D1E01B00EB090808F10301504610
:10346000FFF78AF806460EB90020BAE7B9F1000F57
:103470000FD12220307042463946701CFCF7B4FE52
:10348000222108F1010031540021401C3154012057
:10349000A7E722203070751C3C463DE020781F28AD
:1034A00008DD2078222805D020785C2802D02078FA
:1034B00028702FE05C2005F8010B20780C2815D02F
:1034C00006DC08280FD0092819D00A281AD110E0E4
:1034D0000D2811D0222803D05C2813D1287018E0C1
:1034E0002220287015E06220287012E066202870E3
:1034F0000FE06E2028700CE07220287009E0742024
:10350000287006E022780BA12846FDF7B1FF2D1D9B
:1035100000BF00BF641C6D1C20780028BED1222192
:1035200008F1010031540021401C3154012058E7BA
:103530002222000075253034780000002DE9F0418A
:1035400004460E46002504B116B90020BDE8F081FE
:10355000207B102857D008DC01281BD0022827D058
:10356000042809D008285DD130E0202850D0402818
:1035700053D0802856D12EE005213046FEF7FCFFBF
:1035800005460DB90020E1E727A12846FCF769FEB2
:103590000120DBE706213046FEF7EEFF05460DB9B8
:1035A0000020D3E722A12846FCF75BFE0120CDE7EF
:1035B00005213046FEF7E0FF05460DB90020C5E7BE
:1035C0001DA12846FCF74DFE0120BFE731462046ED
:1035D000FFF79CFDBAE70027206908B90020B5E78E
:1035E0002069FCF737FE471C39463046FEF7C4FF1A
:1035F00005460DB90020A9E73A4628462169FCF79F
:10360000F3FD0120A2E731462046FFF7D5FE9DE7F6
:1036100031462046FFF721FD98E731462046FFF767
:1036200011FE93E7002091E76E756C6C00000000BE
:1036300066616C73650000007472756500000000BF
:1036400010B540F6054000F0D1F840F6054000F016
:10365000CDF841F20A1000F0C9F84FF48030FEF7BF
:103660001BFC4FF48073002203211548FFF74CF92F
:103670004023002203211248FFF746F90020FEF7FD
:10368000F3FC012211020F48FEF7C1FC00210D4896
:10369000FEF714FC00210B48FEF79FFC01221146A7
:1036A0000848FEF7D0FB002201210648FEF71AFC6D
:1036B0000448FEF70EFC0348FEF7B0FB10BD000007
:1036C00000140240002201402DE9F04F8CB0064664
:1036D00000200A903EA090E8004CC068CDE905BEED
:1036E000CDF810A007900FF2EC0ADAE9000ACDE954
:1036F000020A0FF2E00ADAE9000ACDE9000A3848C6
:103700000068C0F381000B900B9820B1012804D011
:10371000022828D103E0334927E0334925E0304827
:10372000001F006800F03F072D48001F0068C0F32D
:10373000881C2B48001F0068C0F30140401C4FEA62
:1037400040092748001F006800F48008B8F5800F82
:1037500001D1254B00E0234BB3FBF7F000FB0CF04D
:10376000B0FBF9F101E01F4900BF00BF1C48006831
:10377000C0F3031404A8055D21FA05F21848006897
:10378000C0F3822402A8055D22FA05F009901448CE
:103790000068C0F342341DF8045022FA05F0089086
:1037A00036B1012E06D0022E06D0032E0AD106E035
:1037B0000A9108E00A9206E009980A9003E0089846
:1037C0000A9000E000BF00BF0A980CB0BDE8F08F7F
:1037D00000000000000000000102030406070809C1
:1037E000083802400024F40040787D01074A02EBCB
:1037F0009011D1F8001800F01F0301229A401143E4
:10380000024B03EB9012C2F80018704700300240E0
:10381000074A02EB9011D1F8001800F01F030122B3
:103820009A409143024B03EB9012C2F80018704784
:1038300000300240074A02EB9011D1F8001800F066
:103840001F0301229A401143024B03EB9012C2F86E
:1038500000187047003002406FF08071884205D137
:10386000054909680140044A116004E002490968F9
:103870000143014A116070478C3802402DE9F0473E
:1038800004008A4616D054F8047CD4F800903E1FF9
:10389000564500D956462046FDF7FEFD05468846AA
:1038A000324621465046FFF731F940B1C0F800904A
:1038B000BDE8F087BDE8F0470846FDF725BE44E9BE
:1038C000017955B129686A18211F8A4202D9611B02
:1038D000091F2960C5F80480EAE7024AC2F800809F
:1038E000E6E7000064000020FEB50024002500206B
:1038F00002900026009001900027FFF74DF8074640
:10390000012F03D11FA0FDF7A3FDFEBD002432E06F
:1039100000252CE002A8FEF74DFF02983C2802D8B3
:103920000298142800D2F0E70020029002A8FEF7C7
:1039300029FF02983C2804D30298642801D201266A
:1039400006E002980A2803D30298322800D2002603
:103950001DF804004006000E0DF804001DF80400D8
:1039600030430DF8040000200290681C85B2082D39
:10397000D0DB601C84B2042CCADB6846FFF770F809
:1039800000BFC2E76572720D0A00000010B540F674
:103990000640FFF72BFF40F60640FFF727FF40F6F3
:1039A0000140FFF723FF40F60140FFF71FFF4FF4F0
:1039B0008053012211462548FEF7A6FF4FF480539D
:1039C000022200212148FEF7C6FF4FF48063012246
:1039D00011461E48FEF798FF4FF480630222002133
:1039E0001A48FEF7B8FF4FF4007301221146184839
:1039F000FEF78AFF4FF40073022200211448FEF7FD
:103A0000AAFF4023012211461148FEF77DFF402303
:103A1000022200210E48FEF79EFF00224FF4805143
:103A20000A48FEF764FF00224FF400710848FEF7D1
:103A30005EFF00224FF480610448FEF758FF002229
:103A400040210348FEF753FF10BD0000001802405C
:103A5000000402401FB541F20400FFF7C7FE4FF01B
:103A60008070FFF7F9FE124800F02AF940F2CF709B
:103A7000ADF800000020ADF80200ADF80400C7204A
:103A800002900020ADF806008DF80C006946084849
:103A900000F0DEF9022201213620FFF703FA0121AE
:103AA000034800F021FA024800F0CCF91FBD0000E5
:103AB00000100040016048607047000070B5044687
:103AC0000B46CD1701EB9575AD10A1EB8505AE004A
:103AD0000F25B540E843CD1701EB9575AD10A1EB6F
:103AE0008505AD0004FA05F2CD1701EB9575AD1013
:103AF00035B1012D0ED0022D18D0032D2ED121E08D
:103B0000184B1B680340174D2B602B461B68134353
:103B10002B6024E0134B1B1D1B680340114D2D1D12
:103B20002B602B461B6813432B6018E00D4B0833AA
:103B30001B6803400B4D08352B602B461B68134355
:103B40002B600CE0074B0C331B680340054D0C3514
:103B50002B602B461B6813432B6000E000BF00BFA7
:103B600070BD000008380140002000213A4A126868
:103B700042F48032384B1A6000BF401C364A12684B
:103B800002F4003119B94FF6FF729042F5D1324A72
:103B9000126802F400320AB900BFFEE72E4A403232
:103BA000126842F080522C4B40331A602B4A126844
:103BB00042F44042294B1A60274A08321268264BC9
:103BC00008331A601A46126842F400421A601A4614
:103BD000126842F4A0521A60214A1B1F1A601A1F71
:103BE000126842F080721B1F1A6000BF1A4A1268E6
:103BF00002F00072002AF9D0184A126842F48032AA
:103C0000164B1A6000BF154A526802F48032002A2F
:103C1000F9D0124A126842F40032104B1A6000BF09
:103C20000E4A526802F40032002AF9D00A4A0832D9
:103C3000126822F00302084B08331A601A46126811
:103C400042F002021A6000BF034A0832126802F012
:103C50000802002AF8D07047003802400070004087
:103C60001964400910B5FFF77FFF10BD10B5134868
:103C700000684FF47A71B0FBF1F0B0FBF1F4601E14
:103C8000B0F1807F01D301200FE0601E4FF0E021F2
:103C900048610F214FF0FF30FDF7C6FA00204FF0CA
:103CA000E021886107200861002008B100BFFEE71D
:103CB0000021481EFDF7B8FA10BD000010000020DA
:103CC00010B504465C49601A8C426FD019DC5B4920
:103CD000A4EB01008C424ED009DCB4F1804F2ED011
:103CE00057482044A0B3B0F5806F72D13AE0B0F5E8
:103CF000806F49D0B0F5006F4FD0B0F5406FF4D170
:103D00007BE0B0F5923F5BD009DCB0F5806F73D0FB
:103D1000B0F5644F0AD0B0F5684F5AD147E0B0F51E
:103D2000943F57D0B0F5963F53D15CE04FF410600C
:103D3000FFF780FD4FF41060FFF76AFD79E04FF464
:103D40000060FFF777FD4FF40060FFF761FD70E062
:103D5000FFE740F60100FFF76DFD40F60100FFF7B9
:103D600057FD66E040F60200FFF764FD40F60200F2
:103D7000FFF74EFD5DE040F60300FFF75BFD40F608
:103D80000300FFF745FD54E040F60400FFF752FD45
:103D900040F60400FFF73CFD4BE040F60500FFF75E
:103DA00049FD40F60500FFF733FD42E02EE040F606
:103DB0000110FFF73FFD40F60110FFF729FD38E045
:103DC0004FF41160FFF736FD4FF41160FFF720FD4F
:103DD0002FE02DE040F61110FFF72CFD40F61110FA
:103DE000FFF716FD25E040F61210FFF723FD40F621
:103DF0001210FFF70DFD1CE011E040F60600FFF782
:103E000019FD40F60600FFF703FD12E040F607003B
:103E1000FFF710FD40F60700FFF7FAFC09E040F657
:103E20000800FFF707FD40F60800FFF7F1FC00E08F
:103E300000BF00BF10BD0000001C0040000C00408F
:103E400000FCFFBF016841F0010101607047000004
:103E50000A8882621D4A90420ED0B0F1804F0BD08A
:103E60001B4A904208D01B4A904205D01A4A904201
:103E700002D01A4A90420BD1026822F0700202600E
:103E800002684B881A43026002688B881A430260FA
:103E90008A68C262124A90420AD0124A904207D0FF
:103EA000026822F4407202600268CB881A43026002
:103EB000064A904202D0094A904201D10A7B02632D
:103EC000426942F001024261704700000000014077
:103ED0000004004000080040000C004000040140C5
:103EE0000010004000140040C2680A43C2607047DE
:103EF000CA43026170470246D06800EA01031069B4
:103F0000084010B10BB1012070470020FCE770B5EC
:103F1000044600250CB1206800B970BDA168206876
:103F200045182846FCF796F9A1680844A06000BF30
:103F3000F3E700002DE9F04704460D460027B84698
:103F4000B94600263349601A8C4235D00CDC324821
:103F50002044E8B1B0F5806F1FD0B0F5006F21D0DC
:103F6000B0F5406F32D122E0B0F5806F29D0B0F5C6
:103F7000184F03D0B0F51C4F28D104E00320FFF701
:103F8000A3FB074623E00320FFF79EFB07461EE046
:103F90000220FFF799FB074619E00220FFF794FB88
:103FA000074614E00220FFF78FFB07460FE00220D0
:103FB000FFF78AFB07460AE00220FFF785FB07466A
:103FC00005E00220FFF780FB074600E000BF00BFCE
:103FD000E06800F4004070B1780000EB5500B0FBE1
:103FE000F5F64FF6F07006EA0008C6F3420948EA13
:103FF0000900A0600CE007EB5500B0FBF5F64FF6AA
:10400000F07006EA000806F00F0948EA0900A0600F
:10401000BDE8F0870078004000BCFFBF014648685B
:10402000C0F308007047C1F3080242607047000007
:1040300010B504463349601A8C424DD00CDC32482E
:104040002044E0B1B0F5806F22D0B0F5006F31D0E0
:10405000B0F5406F52D136E0B0F5806F45D0B0F585
:10406000184F03D0B0F51C4F48D11AE040F60410A9
:10407000FFF7E0FB40F60410FFF7CAFB3FE040F615
:104080001100FFF7D7FB40F61100FFF7C1FB36E048
:1040900040F61200FFF7CEFB40F61200FFF7B8FB28
:1040A0002DE040F60510FFF7C5FB40F60510FFF7C1
:1040B000AFFB24E040F61300FFF7BCFB40F6130013
:1040C000FFF7A6FB1BE040F61400FFF7B3FB40F63A
:1040D0001400FFF79DFB12E040F61E00FFF7AAFB5D
:1040E00040F61E00FFF794FB09E040F61F00FFF7C3
:1040F000A1FB40F61F00FFF78BFB00E000BF00BFF5
:1041000010BD00000078004000BCFFBFC16841F452
:104110000051C160704710B5024602EB9110006873
:1041200001F01F040123A340184008B1012010BD75
:104130000020FCE710B504464FF44060FFF756FB43
:104140004FF44060FFF752FB41F20410FFF74EFBC3
:104150004FF4007207212948FEF79AFB4FF4806262
:1041600007212648FEF794FB4FF400730122022139
:104170002248FEF7C9FB4FF48063012202211F4849
:10418000FEF7C2FB4FF40073022200211B48FEF72A
:10419000E2FB4FF48063022200211848FEF7DBFBAC
:1041A0001748FFF745FF21461548FFF7C3FE0021DA
:1041B000134800F050F80021114800F07DF800216C
:1041C0000F4800F069F80E48FFF7A0FF08210C48DF
:1041D00000F06AF804210A4800F045F8022211466E
:1041E0002520FEF75FFE40F20531054800F00AF891
:1041F0004FF44171024800F005F810BD0000024084
:104200000010014010B500EB9112126801F01F047C
:104210000123A3401A4300EB91131A6010BD70B53F
:10422000024600230024C1F38910105801F01F0634
:104230000125B54000EA050302EB91500068C1F387
:1042400004460125B54000EA050414B10BB1012074
:1042500070BD0020FCE7C26822F4C062C260C26880
:104260000A43C26070470A460021C16821F0040178
:104270001143C1607047000010B50446214605484F
:10428000FFF7D1FE00BF07210248FFF744FF0028D7
:10429000F9D010BD00100140026922F440520261C1
:1042A00002690A43026170470A460021C16821F091
:1042B00008011143C1607047C26822F48052C26095
:1042C000C2680A43C2607047DDDDDDDDDCBBBBDDFB
:1042D000DDDDDDDDDDDDDDDD9888888888888888A6
:1042E00077777777778888888555555666666666C6
:1042F00066666666666888888333333222222222A5
:10430000222222222228888D284300080000002033
:104310006C00000058150008944300086C00002051
:10432000CC900000681500080000000000000000AC
:10433000000000000000000000C2EB0B00000000C5
:10434000000000AA550155AAAA550255AAAA55036C
:1043500055AAAA550455AA0000000000080C04063E
:10436000020301090901030206040C080000000011
:104370000000000000000000000000000915000817
:10438000991400087D3800080000000000000000BB
:044390000000000029
:04000005080001AD41
:00000001FF
